:100000000C9437020C945F020C945F020C945F0214
:100010000C945F020C945F020C945F020C945F02DC
:100020000C945F020C945F020C945F020C945F02CC
:100030000C945F020C945F020C945F020C945F02BC
:100040000C94E6180C945F020C945F020C945F020F
:100050000C945F020C945F020C945F020C945F029C
:100060000C94C5170C945F020C945F020C945F0211
:100070000C945F020C945F020C945F020C945F027C
:100080000C945F020C945F020C945F020C945F026C
:100090000C945F020C945F020C945F020C945F025C
:1000A0000C945F020C945F020C945F020C945F024C
:1000B0000C945F0252463234206E6F742072656178
:1000C00064790042757379007061757365007275AB
:1000D0006E6E696E6700726561647900DF00416E63
:1000E000676C65006D6D00506F7300207E0101002C
:1000F000000000000000000000005F5F0000000042
:1001000007070007070000147F7F1C7F7F14000093
:10011000242A7F7F2A1200466630180C666200305F
:100120007A4F5D377A4800000000070700000000A2
:10013000001C3E63410000000041633E1C000008BB
:100140002A3E1C1C3E2A080008083E3E0808000003
:100150000080E060000000000808080808080000AF
:10016000000060600000006030180C060301003ED3
:100170007F5149457F3E000040427F7F4040000064
:10018000727B49496F660000226149497F36001839
:1001900014527F7F50100000276F494979330000C7
:1001A0003E7F49497B3200000301717D0F0700004B
:1001B000367F49497F360000266F49497F3E00005F
:1001C00000006C6C000000000080EC6C000000007F
:1001D000081C366341000000242424242424000049
:1001E0004163361C08000000020351590F06003E0F
:1001F0007F415D5D5F1E00007C7E13137E7C0041AD
:100200007F7F49497F36001C3E63414163220041A4
:100210007F7F41633E1C00417F7F495D4163004118
:100220007F7F491D0103003C7E43415173720000F2
:100230007F7F08087F7F000041417F7F4141003080
:100240007040417F3F0100417F7F081C7763004180
:100250007F7F41406070007F7F0E1C0E7F7F007F9C
:100260007F060C187F7F001C3E6341633E1C0041EB
:100270007F7F49090706003C7E4351336E5C004195
:100280007F7F09193F660000266F49497B320000D5
:1002900003417F7F410300003F7F40407F3F0000DC
:1002A0001F3F60603F1F007F7F3018307F7F0061FD
:1002B000731E0C1E73610000074F78784F070047CC
:1002C0006371594D67730000007F7F414100000159
:1002D00003060C18306000000041417F7F000008D9
:1002E0000C0603060C0800808080808080808000DF
:1002F0000002060C080000207454543C784000436F
:100300003F7F44447C380000387C44446C280038EB
:100310007C44453F7F400000387C54545C1800000A
:10032000487E7F490302000098BCA4A4FC7C0041E5
:100330007F7F08047C78000000447D7D4000000041
:1003400060E08084FC7D00417F7F10386C440000B9
:1003500000417F7F400000787C0C380C7C780004E2
:100360007C78040478780000387C44447C3800842D
:10037000FCF8A4243C1800183C24A4F8FC84004495
:100380007C78440C08000000485C54547420000041
:10039000043F7F44642000003C7C40407C7C0000A3
:1003A0001C3C60603C1C003C7C6038607C3C004431
:1003B0006C3810386C4400009CBCA0A0FC7C000091
:1003C0004C64745C4C4400004141773E08080000D6
:1003D00000007F7F0000000008083E7741410002D6
:1003E000030103020101000A0B0C0D0E0F000102B4
:1003F0000304050A0D0E09000302000004050800AD
:1004000000000000000000000000000000000102E9
:100410000408102040800102040810200102040892
:100420001020408040010204080404040404040471
:100430000402020202020203030303030302020393
:1004400005050505000000002300260029002C00FA
:1004500000000000250028002B002E0000000000F6
:10046000240027002A002D00CD09421697161124DA
:100470001FBECFEFD8E0DEBFCDBF12E0A0E0B1E0FD
:10048000EEEEF3E402C005900D92A038B107D9F763
:1004900024E0A0E8B2E001C01D92A030B207E1F76D
:1004A00012E0C6E3D2E004C02197FE010E94581D6D
:1004B000C433D107C9F70E94E01A0C94EA210C94C6
:1004C000000090E080E008950895CF92DF92EF92CF
:1004D000FF920F931F93CF93DF936C01EB017B018E
:1004E000E40EF51E10E000E0CE15DF0561F0699125
:1004F000D601ED91FC910190F081E02DC6010995A6
:10050000080F191FF1CFC801DF91CF911F910F91F3
:10051000FF90EF90DF90CF900895EEE8F2E024E1B5
:10052000DF011D922A95E9F744E150E0BC01CF01BB
:100530000E94C81E8EE892E00895EEE8F2E024E101
:10054000DF011D922A95E9F79F938F937F936F9315
:1005500084E491E09F938F93FF93EF930E94121F87
:100560008DB79EB708960FB6F8949EBF0FBE8DBF8D
:100570008EE892E008950F931F93CF9381EE92E05F
:100580000E94B10E87EE90E00E948D029C0140E037
:1005900060E081EE92E00E94800C609142037091D5
:1005A000430380914403909145030E94D71B0E940E
:1005B0009D029C0140E068E081EE92E00E94800C88
:1005C0002AE531E040E06BE081EE92E00E94800C91
:1005D00020E030E048EC52E4609142037091430324
:1005E00080914403909145030E94BD1C0E94D71B3B
:1005F000862FC4E66C2F0E942A1D692F70E090E0C0
:1006000080E00E949D029C0140E06CE081EE92E05F
:100610000E94800C84EE90E00E948D029C0140E0DC
:100620006EE081EE92E00E94800C8EED90E00E94E0
:100630008D029C0141E060E081EE92E00E94800C1E
:10064000609146037091470380914803909149035C
:100650000E94D71B0E949D029C0141E068E081EE50
:1006600092E00E94800C2AE531E040E06BE081EEF0
:1006700092E00E94800C20E030E048EC52E460916F
:1006800046037091470380914803909149030E946B
:10069000BD1C0E94D71B862F6C2F0E942A1D692F1C
:1006A00070E090E080E00E949D029C0140E06CE0E0
:1006B00081EE92E00E94800C8CED90E00E948D0211
:1006C0009C0141E06EE081EE92E00E94800C8091FE
:1006D0004E03813009F44EC0CCF5882309F442C0A2
:1006E00080914F03EEE8F2E094E1DF011D929A95CC
:1006F000E9F78A3008F04DC01F9295E29F931F9250
:100700008F9388E491E09F938F93FF93EF930E94E0
:10071000121F2EE832E046E06EE081EE92E00E9489
:10072000800C06E011E021E046E06DE081EE92E011
:100730000E943D0E8DB79EB708960FB6F8949EBFE7
:100740000FBE8DBFCF911F910F9108958230F1F0B0
:10075000833031F683EC90E00E948D029C0147E0EB
:100760006CE00FC086ED90E00E948D029C0147E096
:100770006BE007C08EEC90E00E948D029C0147E088
:1007800069E081EE92E00E94800CAACF88EC90E0B4
:10079000EBCF843638F51F9295E29F931F928F938B
:1007A00088E491E09F938F93FF93EF930E94121F31
:1007B0002EE832E046E06DE081EE92E00E94800C8F
:1007C00006E011E021E046E06CE081EE92E00E945C
:1007D0003D0E8DB79EB708960FB6F8949EBF0FBE1C
:1007E0008DBFB0CF1F9295E29F931F928F9388E4A5
:1007F00091E09F938F93FF93EF930E94121F2EE837
:1008000032E046E06CE081EE92E00E94800C06E06F
:1008100011E021E046E06BE081EE92E00E943D0EA7
:100820008DB79EB708960FB6F8949EBF0FBE8DBFCA
:1008300089CF8EEB92E00E94B91481110BC084EB3A
:1008400090E00E948D029C0144E060E081EE92E025
:100850000E94800C41E061E08EEB92E00E94DF1389
:1008600068E18EEB92E00E94071266E271E08EEB87
:1008700092E00E940D134CE251E061E08EEB92E0B9
:100880000E943F138EEB92E00C94A41361E08DE084
:100890000E944C1A60E089E10E944C1A81EE92E0BD
:1008A0000E94680E81EE92E00E94B10E60E081EE3F
:1008B00092E00E94710E6BEE70E081EE92E00E9479
:1008C000E60B2DE431E043E061E081EE92E00E942E
:1008D000800C2CE531E047E067E081EE92E00E9479
:1008E000800C68EB7BE080E090E00E9461190E9440
:1008F000BB020C9419048EEB92E00E94571248E15F
:1009000066EA72E08EEB92E00E94E9128EEB92E0D2
:100910000E94A41362E070E080E090E00C94611902
:10092000E6EAF2E088E1DF011D928A95E9F766E6E2
:1009300071E0CF010E94EE1E0C947B04CF92DF92F7
:10094000FF920F931F93CF93DF93C6EAD2E088E123
:10095000F82EFE018F2D11928A95E9F702E311E03E
:10096000F80186858F9385858F9384858F93838502
:100970008F938CE691E09F938F93DF93CF930E94A8
:10098000121F0E947B04FE018F2D11928A95E9F7B8
:10099000F80180898F9387858F9386E791E09F93F5
:1009A0008F93DF93CF930E94121F0E947B04FE015E
:1009B0008F2D11928A95E9F7F80183818F938281B7
:1009C0008F9381818F9380818F938FE791E09F93A5
:1009D0008F9393E8C92E91E0D92EDF92CF92DF93C7
:1009E000CF930E94121F0E947B04FE018F2D119253
:1009F0008A95E9F7F80187818F9386818F938581A6
:100A00008F9384818F938CE891E09F938F93DF92F3
:100A1000CF92DF93CF930E94121FEDB7FEB7B2962D
:100A20000FB6F894FEBF0FBEEDBF0E947B04FE011F
:100A30008F2D11928A95E9F7F80181858F93808532
:100A40008F9380E991E09F938F9324E9C22E21E058
:100A5000D22EDF92CF92DF93CF930E94121F0E947B
:100A60007B04FE011192FA94E9F7F80182851F9246
:100A70008F938CE991E09F938F93DF92CF92DF93D6
:100A8000CF930E94121FEDB7FEB770960FB6F89481
:100A9000FEBF0FBEEDBFDF91CF911F910F91FF9071
:100AA000DF90CF900C947B040F931F93CF93DF9331
:100AB000D82F81EE92E00E94B10E0EE111E0C0E06D
:100AC000F801219131918F014C2F61E081EE92E08C
:100AD0000E94800CCF5FC43099F72EE34D2F60E069
:100AE00081EE92E0DF91CF911F910F910C94EA0B70
:100AF0000F931F93CF93DF93D82F81EE92E00E9444
:100B0000B10E0EE011E0C0E0F801219131918F01AA
:100B10004C2F61E081EE92E00E94800CCF5FC830E4
:100B200099F720EA31E040E068E081EE92E00E942F
:100B3000800C60913601709137018091380190915D
:100B400039010E949D029C0141E068E081EE92E043
:100B50000E94800C60913A0170913B0190E080E02E
:100B60000E949D029C0142E068E081EE92E00E94BA
:100B7000800C60913C0170E090E080E00E949D025A
:100B80009C0143E068E081EE92E00E94800C60915D
:100B90003D0170913E0180913F01909140010E9482
:100BA0009D029C0144E068E081EE92E00E94800C8E
:100BB000609141017091420190E080E00E949D02AD
:100BC0009C0145E068E081EE92E00E94800C2EE3FB
:100BD0004D2F60E081EE92E0DF91CF911F910F9158
:100BE0000C94EA0BCF9387E193E00E9411108823C5
:100BF000E1F08091A4029091A502009759F481E060
:100C000090E09093A5028093A4028091A3020E9499
:100C100054050BC0019709F067C08091A302882397
:100C200009F44DC0833009F456C087E193E00E9477
:100C3000AD0F813009F055C18091A4029091A502B9
:100C4000019759F48091A302833019F08F5F80934C
:100C5000A3028091A3020E9454058091A402909166
:100C6000A502029779F480918D0281110BC08091C9
:100C7000A202873019F08F5F8093A2028091A202B6
:100C80000E9478058091A4029091A502029709F034
:100C900015C280918D02882309F410C2C091A2026E
:100CA000C23009F4C3C00CF049C0CC2309F45CC0C5
:100CB000C13009F48AC08C2FCF910C94780582E062
:100CC00090E09093A5028093A4021092A20280E08B
:100CD0000E947805AACF1092A5021092A402109249
:100CE000A3020E94BB02A1CF82E090E09093A502F4
:100CF0008093A4028091A2028630B9F04CF487FD63
:100D000094CF80918D0291E0892780938D028DCFC1
:100D1000873009F08ACF81E090E09093A50280931C
:100D2000A4021092A30280E072CF0E949E040E944F
:100D300090041092A5021092A402D3CFC43009F4FB
:100D40009FC00CF494C0C53009F0B5CF809141012B
:100D500090914201833B910508F0ADCF01969093AD
:100D6000420180934101A7CF60913201709133011C
:100D70008091340190913501603223E07207810542
:100D8000910508F098CF0E94061C26E636E646E854
:100D90005FE30E94BD1C0E94D71BDC01CB010196C2
:100DA000A11DB11D813223E09207A105B10520F0FC
:100DB00080E293E0A0E0B0E08093320190933301B1
:100DC000A0933401B093350176CF609136017091D4
:100DD00037018091380190913901603223E0720728
:100DE0008105910508F067CF0E94061C26E636E6CD
:100DF00046E85FE30E94BD1C0E94D71BDC01CB01CB
:100E00000196A11DB11D813223E09207A105B10514
:100E100020F080E293E0A0E0B0E080933601909370
:100E20003701A0933801B093390145CF60913A0161
:100E300070913B016436710508F03DCF90E080E091
:100E40000E94061C26E636E646E85FE30E94BD1CCB
:100E50000E94D71B6F5F7F4F613187E2780710F0E8
:100E600060E177E270933B0160933A0124CF809177
:100E70003C018F3F09F41FCF8F5F80933C011BCF54
:100E800060913D0170913E0180913F019091400140
:100E9000603826E9720728E98207910508F00BCF30
:100EA0000E94061C26E636E646E85FE30E94BD1C6B
:100EB0000E94D71B462F572FBC01413886E958079F
:100EC00088E96807710520F040E856E968E970E0B4
:100ED00040933D0150933E0160933F017093400168
:100EE000EACE823009F0EAC08091A4029091A50276
:100EF000019759F48091A302882319F081508093BF
:100F0000A3028091A3020E9454058091A4029091B3
:100F1000A502029779F480918D0281110BC0809116
:100F2000A202882319F081508093A2028091A2022C
:100F30000E9478058091A4029091A502029709F081
:100F4000BDC080918D02882309F4B8C0C091A2026F
:100F5000C23009F462C054F5CC23D1F1C13009F09C
:100F6000AACE60913601709137018091380190913D
:100F70003901623071058105910508F49CCE0E940B
:100F8000061C26E636E646E85FE30E94651B0E94E3
:100F9000D71B6150710981099109609336017093E3
:100FA0003701809338019093390185CEC43009F41C
:100FB00056C00CF44DC0C53009F07DCE8091410182
:100FC000909142018230910508F475CE0197C7CE09
:100FD000609132017091330180913401909135011B
:100FE000623071058105910508F465CE0E94061CEA
:100FF00026E636E646E85FE30E94651B0E94D71BA3
:101000006150710981099109609332017093330134
:1010100080933401909335014ECE60913A017091E6
:101020003B016230710508F446CE90E080E00E94FA
:10103000061C26E636E646E85FE30E94651B0E9432
:10104000D71B6150710909F00DCF61E070E00ACF44
:1010500080913C01813009F42ECE81500ECF6091F9
:101060003D0170913E0180913F01909140016536B4
:1010700071058105910508F41ECE0E94061C26E626
:1010800036E646E85FE30E94651B0E94D71BDC0141
:10109000CB010197A109B10984369105A105B105DC
:1010A00020F484E690E0A0E0B0E080933D019093CE
:1010B0003E01A0933F01B0934001FDCDCF91089533
:1010C000CF93DF93EC018EEB92E00E945712E6EA99
:1010D000F2E088E1DF011D928A95E9F786E28083DC
:1010E00083E0FE01A7EAB2E001900D928A95E1F754
:1010F0000E947B048EEB92E0DF91CF910C94A413BD
:10110000CF93DF9300D000D0CDB7DEB71C821B8217
:1011100083E0E7EAF2E0DE01119601900D928A95F4
:10112000E1F78091A6028A3209F046C068EA71E0D0
:10113000CE0101960E94E51E892BA1F48BEA92E074
:101140000E94A11E0E94081C20E030E040EA52E408
:101150000E94651B60934203709343038093440392
:10116000909345036CEA71E0CE0101960E94E51E62
:10117000892BA1F48BEA92E00E94A11E0E94081C18
:1011800024EE38E34EE052E40E94651B6093460370
:1011900070934703809348039093490360EB71E099
:1011A000CE0101960E94E51E892B31F48BEA92E074
:1011B0000E94831E80934E030F900F900F900F900C
:1011C000DF91CF910895CF92DF92EF92FF92CF936C
:1011D000DF931F92CDB7DEB70E94F205BE016F5FAD
:1011E0007F4F8EEB92E00E94EC128823A1F0E6EA9A
:1011F000F2E088E1DF011D928A95E9F78EEB92E03B
:101200000E942312482F66EA72E08EEB92E00E9461
:1012100000130E9480080E94301960938502709329
:1012200086028093870290938802C0908902D090B2
:101230008A02E0908B02F0908C029B01AC012C1989
:101240003D094E095F0969017A0135E6C316D104EB
:10125000E104F10410F16093890270938A02809393
:101260008B0290938C02E0918002E830B0F4F0E0C1
:10127000E45CF64F0C94581D4409550958095B0964
:101280005E0961096409C20988EA91E00E94600868
:10129000809180028F5F809380020F90DF91CF91C9
:1012A000FF90EF90DF90CF9008958CEA91E0EECF21
:1012B00080EB91E0EBCF84EB91E0E8CF88EB91E01D
:1012C000E5CF8CEB91E0E2CF89E10E94E119BC010E
:1012D000990F880B990B0E94081C20E030E040E831
:1012E0005AE30E94BD1C2FE832EC45E450E40E9412
:1012F000BD1C9B01AC010E94F41A6B017C012DEC1A
:101300003CEC4CE650E40E94B81C181694F526E616
:1013100036E646E850E4C701B6010E94601B87FD2F
:1013200007C096E6C92EDC2C96E8E92E90E4F92E4B
:10133000C0928102D0928202E0928302F0928402F3
:101340002DEC3CEC4CE650E4C701B6010E94F31AC8
:1013500028EF3FEF4FEF5EE30E94651B20E030E097
:1013600048EC52E40E94BD1C0E94D71B60934F03BF
:101370008FCF8DECC82E8CECD82E8CE6E82E80E436
:10138000F82ED6CF8091A4029091A502892B11F45A
:101390000E94BB021092800280CF0F931F9320E126
:1013A0004FE06EE087E193E00E946D0FEDEDF2E01B
:1013B0001382128210AE11AE84EC91E0918380838F
:1013C00003E81AE02FEE3AE041E25DE06BEF7DE0EA
:1013D00081EE92E00E94F50E26E045E067E081EEA6
:1013E00092E00E948A0B00E816E928E930E048E024
:1013F00050E069E070E08EEB92E00E94E0111F91F6
:101400000F9108951F93CF93DF93EC01EC89FD8931
:1014100049AD6A3059F43396E491E40FE9AF18AE60
:1014200081E090E0DF91CF911F910895262F3296B1
:10143000149168AD04960E94EA0BE8ADE10FE8AFA5
:10144000EFCFCF92DF92EF92FF920F93FC01C12C6E
:1014500092E1D92E9AE7E92EF12C90E04C155D052A
:101460006E057F0540F4F694E794D794C7949F5F88
:101470009630A1F797E031E0392780E5211101C0CE
:1014800080E7202F2C70032F0695022B082B00835A
:101490009095917091830F91FF90EF90DF90CF9096
:1014A000089520915203222381F03FB7F8942091B0
:1014B0005203213069F42DB3209350034DB3209192
:1014C0005103209524232DBB3FBF8CBD9DBD0895A6
:1014D00030935003FACF8EBD00000DB407FEFDCF50
:1014E0008EB5089580915203882361F09FB7F894D8
:1014F0002091520380915003213019F48DBB9FBF7E
:1015000008958FBF08950F931F93CF93DF938C019E
:10151000C62F642FCC32A8F4CA32D0F5C83239F1C4
:10152000C932E1F180E0C034A0F1CF73F801EC0FD3
:10153000F11DD68DDF3F61F1C03108F042C08D2F23
:1015400013C0CD3289F170F384EB8C0F823050F7E9
:10155000CF73C00FD12FD11D8E8D41112EC061E0F0
:101560000E944C1A60E08E8D0E94881A11C0025EA3
:101570001F4FD0E0F80181918F018F3F31F061E082
:10158000D03108F062E00E944C1ADF5FD63191F74B
:1015900081E0DF91CF911F910F91089570E090E06D
:1015A00080E00E946119F4CF85E090E0433010F0B4
:1015B00082E090E00E949A19EBCF62E00E944C1A00
:1015C000E7CFC03111F40E94E5188D2F0E94B61AA2
:1015D00021E0892B09F420E0F801218FD9CFCF92A7
:1015E000DF92EF92FF920F931F93CF93DF9300D080
:1015F000CDB7DEB77C01142F6901683109F443C00F
:1016000080F4643101F16731A9F080E00F900F9010
:10161000DF91CF911F910F91FF90EF90DF90CF90CE
:101620000895693109F45FC0603279F76AE40E9475
:10163000CE0E27C0112329F1D6018D916D010E9494
:101640006B0A1150F7CFFC0120813181848595858B
:10165000A685B785892B8A2B8B2B51F4F9018085C0
:101660009185A285B385F70184879587A687B7877B
:10167000D90111964C9169E4C7010E94CE0E0E94D7
:101680001A0F81E0C3CFDC01ED91FC91E485E150BC
:1016900000E0E33020F4F0E0EB5EFD4F0081F70165
:1016A000448555856685778521E0CE0101960E94A7
:1016B000210A89819A810E94510AD701ED91FC91FA
:1016C000408169E4C7010E94CE0EF701A081B1817B
:1016D0000285138530E020E012964C916CE2C70140
:1016E000F8010995CECFFC01A081B1810285138557
:1016F00030E020E013964C916CE2F8010995D70197
:10170000ED91FC91418169E4C7010E94CE0E0E94D7
:10171000720AB7CFFC0167A340A721A70895CF9312
:10172000DF93EC01A889B989FD0134913196949138
:10173000319684911396FD01A4916317A8F1961731
:1017400098F1631B770B8A9FE02D1124E69FC0015F
:10175000E79F900D1124280F392F311D83E0220FB0
:10176000331F8A95E1F7C9010496DA01245F3F4FE0
:10177000E889F989E80FF91FE491ED930196821742
:101780009307B1F78D89882361F0FA019A01285FE8
:101790003F4F8191DF01119780958C932E173F0762
:1017A000C1F7DF91CF910895FA01CA01089611920D
:1017B000E817F907E1F7E6CF662329F06A3019F058
:1017C000862F90E008958FEF9FEF0895FC01718BB5
:1017D000608B08955F926F927F928F929F92AF92EB
:1017E000BF92CF92DF92EF92FF920F931F93CF930E
:1017F000DF93CDB7DEB728970FB6F894DEBF0FBEE4
:10180000CDBF6C01A62EB42E922EFC018089918949
:10181000FC013296E4903196F4905E2C560EF40E54
:1018200081E0860F581610F4EE24E394712C672C97
:101830008A2C262DAE014F5F5F4F692DC6010E9495
:101840008F0B8E010F5F1F4F21E04B2D682DC601BE
:101850000E943D0E63948394851458F3B3947E0CD8
:10186000BF1428F328960FB6F894DEBF0FBECDBF85
:10187000DF91CF911F910F91FF90EF90DF90CF906C
:10188000BF90AF909F908F907F906F905F900895E2
:10189000CF92DF92EF92FF920F931F93CF93DF933C
:1018A0008C01D62EC42EDC015096ED91FC9132961F
:1018B000C491FC01108E7901D0E0D7016D917D01BA
:1018C000D8011296ED91FC91C80109958F3F9807B8
:1018D00069F08E3FEFEF9E0781F3282F4C2D6D2D81
:1018E000C8010E94EA0BDC0EDF5FE7CF8D2FDF918E
:1018F000CF911F910F91FF90EF90DF90CF900895BF
:10190000ECEDFBE0DC011396FC93EE9312970C9444
:10191000480C462FDC011896ED91FC9130E020E058
:1019200060E209949A01DC011896ED91FC91462F32
:1019300067E10994CF93DF931F92CDB7DEB7698338
:10194000AE014F5F5F4F61E00E94920C0F90DF91FC
:10195000CF910895462FDC011696ED91FC9130E071
:1019600020E065E10994462FDC011696ED91FC918B
:1019700030E020E066E109949A01DC011696ED91D1
:10198000FC91462F67E10994DC011696ED91FC91DC
:1019900030E020E040E068E10994DC011696ED912A
:1019A000FC9130E020E040E069E10994EF92FF9281
:1019B0000F931F93CF93DF931F92CDB7DEB77C01B8
:1019C0008B01D8016C91673129F150F46531A0F495
:1019D0000F90DF91CF911F910F91FF90EF9008959D
:1019E0006A3118F16E3FA1F7F8014181498369E23C
:1019F000C7010E94CE0E0BC0F80141814983D70177
:101A00001696ED91FC9130E020E0C70109950E5F3C
:101A10001F4FD7CFF80181818983AE014F5F5F4FA0
:101A200061E0C7010E94BC0CF2CF0F5F1F4FD701CE
:101A30001696ED91FC9130E020E040E0C701099559
:101A4000C0CFEF92FF920F931F93CF93DF938C0140
:101A5000C62FD42F7901673130F46531B8F4643181
:101A600031F080E01BC0673101F16A31D0F7D80155
:101A70001896ED91FC9197014D2F6C2FC801DF91C5
:101A8000CF911F910F91FF90EF90099460E00E9419
:101A9000890C6D2FC8010E949A0C81E0DF91CF91D3
:101AA0001F910F91FF90EF90089561E00E94890CC3
:101AB000DECFCF92DF92FF920F931F93CF93DF93EE
:101AC000EC01042F69016E3009F44EC06F30A9F0AB
:101AD00080E06B3051F466E672E0442311F06FE56C
:101AE00072E0CE010E94D60C81E0DF91CF911F9170
:101AF0000F91FF90DF90CF9008950E94C40CF601E3
:101B00001381110F110F110F8C89180F612F62951E
:101B10006F706061CE010E94AA0C612F6F70CE01C0
:101B20000E94AA0CF6016481606BCE010E94AA0C8F
:101B3000F601F280FF0CFF0CFF0CC080D1802F2D2E
:101B4000210F3327331F253831051CF084E8F82E88
:101B5000F11AA6016F2DCE010E94BC0C0150C9F7ED
:101B6000CE010E94CD0CC0CF0E94C40C61E8CE0112
:101B70000E94AA0C602F66956695CE010E94B30C58
:101B8000EFCF0F931F93CF93DF93EC01162F042F0A
:101B90000E94590D81110BC01A3079F01D30B1F03F
:101BA000193031F469E372E0CE010E94FD0D81E04D
:101BB000DF91CF911F910F910895CE010E94050EE4
:101BC00068E172E0CE010E94D60CF1CF01110AC08B
:101BD00068E572E0CE010E94D60CE881F981828925
:101BE0008C8BE5CF61E572E0CE010E94D60CE881D6
:101BF000F9818389F5CF0C94C10DFC017183608359
:101C0000FB012289FC01248B0895CF93DF93EC0123
:101C1000EA85FB8530E020E040E068E20995EE814E
:101C2000FF8130E020E040E064E1CE01099541E031
:101C30006BE4CE010E94CE0EE881F981448169E215
:101C4000CE010E94CE0E40E06BE4CE010E94CE0E8B
:101C5000E881F981448169E2CE010E94CE0E41E023
:101C60006BE4CE010E94CE0EE881F981458169E2E4
:101C7000CE01DF91CF910C94CE0E0F931F93CF9393
:101C8000DF9300D000D01F92CDB7DEB76C834D83B9
:101C90002B831A830983DC011496ED91FC919E013C
:101CA0002F5F3F4F41E06FE009950F900F900F902D
:101CB0000F900F90DF91CF911F910F910895DC014C
:101CC0001496ED91FC9130E020E040E069E0099449
:101CD000DC011496ED91FC9130E020E040E06AE0F8
:101CE0000994462FDC011496ED91FC9130E020E040
:101CF0006BE00994CF92DF92FF920F931F93CF93E3
:101D0000DF9300D000D01F92CDB7DEB78C011C82CC
:101D100081E08B837A836983D801ED91FC91F1880E
:101D20001D82F801A081B181C480D5809E012F5F02
:101D30003F4F50964C916FE0C801F60109958D8197
:101D40008F5F8D838F1568F30F900F900F900F901A
:101D50000F90DF91CF911F910F91FF90DF90CF9067
:101D60000895CF93DF93CDB7DEB728970FB6F894D9
:101D7000DEBF0FBECDBFBE016F5F7F4F28E0FB010E
:101D800011922A95E9F70E947A0E28960FB6F894D8
:101D9000DEBF0FBECDBFDF91CF910895DC011A9653
:101DA000ED91FC9130E020E0099480E00895FC0181
:101DB0001182108285ED9EE09583848397838683CC
:101DC0009187808793878287158A108E148615865F
:101DD000168617868FEF868B828FDF015E96F496CC
:101DE0008D93AE17BF07E1F70895AF92BF92CF92E0
:101DF000DF92EF92FF920F931F93CF93DF93EC014B
:101E00005B016A0179010E94D70EBD82AC82DF823C
:101E1000CE82F986E8861B870A87CE01DF91CF91B3
:101E20001F910F91FF90EF90DF90CF90BF90AF90F8
:101E30000C945F0ECF93CFB7F89480915303811128
:101E400027C0E3E3F4E08491E8E1F4E09491E82F23
:101E5000F0E0EE0FFF1FE45AFB4FA591B491EC9117
:101E6000E92321F461E08AE00E94881A61E08AE0B7
:101E70000E944C1A8CB580618CBD8CB580648CBD81
:101E800061E08DE00E944C1A61E08BE00E944C1AE8
:101E9000809153038F5F80935303CFBFCF910895F9
:101EA000CF93DF93EC0189819881913069F462E0EE
:101EB0000E944C1A62E08A810E944C1A62E08B8177
:101EC000DF91CF910C944C1A60E00E944C1A60E0B4
:101ED0008A810E944C1A60E0F2CFCF93DF93EC012D
:101EE00081E0888382E090E09D8B8C8B88EC90E091
:101EF0009F8B8E8B188E198E1A8E84E690E098A395
:101F00008F8F19A21AA21BA21CA21DA21EA2698356
:101F10004A832B830E9430196C837D838E839F8339
:101F2000688779878A879B876C877D878E879F875D
:101F30006B8F7C8F8D8F9E8FCE01DF91CF910C9414
:101F4000500FCF93DF93EC010E9430196C837D8397
:101F50008E839F83DF91CF9108950F931F93CF932B
:101F6000DF93EC010E94A10F2C893D89888599851A
:101F7000AA85BB85820F931FA11DB11D4C815D8178
:101F80006E817F81481759076A077B0708F447C0AD
:101F900089810E94B61A388121E03817190609F0A4
:101FA00020E02AA38A810E94B61AFC01288130E031
:101FB00081E0E217F30709F080E08BA39AA14C813E
:101FC0005D816E817F81911128C08DA1882329F1C7
:101FD00082E0E217F30709F481E0EF8DF8A10B8DA1
:101FE0001C8D2D8D3E8D0E0F1F1F211D311D401785
:101FF00051076207730778F489A14B8F5C8F6D8F4F
:102000007E8F9DA3488759876A877B87DF91CF9111
:102010001F910F91089589A3F0CF80E0F2CF80E067
:10202000F5CFCF92DF92EF92FF92CF93DF93EC0147
:102030000E94A10F8B810E94B61AFC01288130E01A
:1020400091E0E217F30709F090E09CA34C815D81D9
:102050006E817F81AE89BF89CC84DD84EE84FF846C
:10206000CA0EDB1EE11CF11C80E04C155D056E05FF
:102070007F0588F0E217F307A9F08EA1882391F07D
:10208000188E488B598B6A8B7B8B81E09EA34C8783
:102090005D876E877F87DF91CF91FF90EF90DF9014
:1020A000CF90089580E0F2CFCF93DF93EC018C8145
:1020B0000E94881A8B8D9C8DDF91CF910C949A1978
:1020C000FC0122813381848195812817390719F019
:1020D000822F0C94881A08950F931F93FC01068198
:1020E00017812085318540E052E16AE770E090E099
:1020F000041715072607370740F476956795579517
:1021000047959F5F9630A1F797E0392F306A369553
:102110009095917080915203882381F08FB7F89445
:1021200020915203213091F42DB3209350034DB3ED
:1021300020915103209524232DBB8FBF3CBD9DBD15
:1021400060E0CF011F910F910C94541080935003C5
:10215000F5CF61E00E94541080915203882361F012
:102160009FB7F8942091520380915003213019F4C5
:102170008DBB9FBF08958FBF08951F93CF93DF93AB
:10218000EC01162F0E946C10812F80620E946B0A56
:102190008A87CE01DF91CF911F910C94A9101F93D4
:1021A000CF93DF93EC01162F0E946C10812F0E94B9
:1021B0006B0A8A878FEF0E946B0A182FCE010E944C
:1021C000A910812FDF91CF911F910895DF92EF9297
:1021D000FF920F931F93CF93DF938C01C62FD42EC2
:1021E000E52EF22E0E946C108C2F80620E946B0AEA
:1021F000F8018287CD2DDE2DFA94FFEFFF1621F036
:1022000089910E946B0AF8CFC801DF91CF911F918D
:102210000F91FF90EF90DF900C94A9100F931F93F4
:10222000CF93DF93222331F0DF91CF911F910F9154
:102230000C94BD10042F162FEC010E946C10812FFE
:1022400080620E946B0A8A87802F0E946B0ACE01EF
:10225000DF91CF911F910F910C94A910CF92DF9233
:10226000EF92FF920F931F93CF93DF938C016B013B
:10227000F22EFC018485811117C0C385DC2F4C1719
:1022800008F4D42FCD1BC8010E946C108F2D0E9422
:102290006B0AF80182877601D15070F0F7018191C5
:1022A0007F010E946B0AF8CFC1E04111C0E0D42F3A
:1022B000413248F3D0E2E7CFC15020F080E00E94E5
:1022C0006B0AFACFC801DF91CF911F910F91FF9058
:1022D000EF90DF90CF900C94A910CF92DF92EF9205
:1022E000FF920F931F93CF93DF938C016B01FC013F
:1022F0008485811118C0C385DC2F4C1708F4D42FB6
:10230000CD1BC8010E946C1081E60E946B0AF80187
:1023100082877601D15068F08FEF0E946B0AF70137
:1023200081937F01F7CFD42F413208F0D0E2C0E093
:10233000E8CFC15020F08FEF0E946B0AFACFC8019E
:10234000DF91CF911F910F91FF90EF90DF90CF9091
:102350000C94A910CF93DF93EC0162EE0E94BD10A4
:102360008A85DF91CF910895CF93DF93EC0161EEE1
:102370000E94BD108A85DF91CF910895CF93DF939E
:10238000EC016FEF0E94BD108A85DF91CF91089517
:10239000FC0184E593E09183808316868681978192
:1023A000A085B185893B9848A105B10540F480E836
:1023B00096E9A8E9B0E086839783A087B18708955E
:1023C0000F931F93FC0173836283558344830683B9
:1023D00017832087318780E2838781E0848785E0C7
:1023E000838B158A85E090E0A0E0B0E0838F948F26
:1023F000A58FB68FCF011F910F910C94C811462F56
:102400006D3708F04DE720E065E00C940E110F9356
:102410001F93CF938C016623A1F0613208F060E234
:10242000F8016387C1E120E0F80143856C2FC80102
:102430000E940E11CF5FC731B1F7CF911F910F915D
:10244000089561E0EDCFFC0183850895FC01828150
:102450009381019631F081E0248135812F3F3F4FF8
:1024600009F480E008951F93CF93DF93EC010E945D
:102470002612182F8823B1F08A819B812C813D81FF
:102480008217930739F061E00E944C1A61E08C8159
:102490000E944C1A60E0CE010E94601061E0CE0103
:1024A0000E945410812FDF91CF911F910895CF93F7
:1024B000DF93EC0160E00E9460108F89988D0E948C
:1024C0009A198D85882319F0CE010E94B4114C8988
:1024D0004E7F4C8B20E060E0CE010E940E1162E046
:1024E000CE010E94CF10EDEEF3E0E49141E050E028
:1024F00001C0440FEA95EAF7482B20E062E0CE01E4
:10250000DF91CF910C940E11FC01448941FD0AC06A
:102510004260448B20E060E00E940E1188E893E165
:102520000C949A1908950F93CF93DF93EC01211126
:102530000DC020EACE010E942E11002349F061E077
:10254000CE01DF91CF910F910C94601020EBF2CF70
:10255000DF91CF910F910895CF92DF92EF92FF928A
:102560000F93CF93DF93EC0101E00E9493120E943E
:1025700030196B017C01CE010E94BE118073B1F451
:102580000E9430196C197D098E099F09603671050A
:102590008105910580F381E08E8B80E0DF91CF9102
:1025A0000F91FF90EF90DF90CF90089560E0CE0103
:1025B0000E94601020E040E767E0CE010E940E110B
:1025C0008A8584FF04C0CE010E94B411E6CF81E069
:1025D000E5CF20E00C94AC12CF93DF93EB010E9487
:1025E000BE1190E0959587958770863028F42097E6
:1025F00009F0888381E001C080E0DF91CF910895E8
:10260000CF93DF93EC010E946D1120E040E467E07E
:10261000CE01DF91CF910C940E110F931F93CF93A6
:10262000DF93EC018B012B89AB016AE00E94E6107D
:102630002B89A80160E1CE01DF91CF911F910F910D
:102640000C94E6100F931F93CF938C01CEEFC60F1F
:1026500069F0C37020E04C2F63E00E940E11CE5F42
:10266000F801C38BCF911F910F91089520E040E0B6
:1026700063E00E940E1182E0F801838BF3CFEF92AA
:10268000FF920F931F93CF938C01C62F7A01611194
:102690002CC0FC01438950E0B7010E960E94DC1E5D
:1026A000EC2FF0E0E951FC4F6491F8012389A70178
:1026B000C8010E94E61062E0C8010E94CF10EC2F12
:1026C000F0E0E351FC4FE49141E050E001C0440FE1
:1026D000EA95EAF7482B20E062E0C801CF911F910C
:1026E0000F91FF90EF900C940E11663048F4E62F96
:1026F000F0E0E951FC4F613099F2649121E0D7CFCD
:10270000CF911F910F91FF90EF9008951F93CF935A
:10271000DF93EC01162F62E00E94CF10E12FF0E072
:10272000E351FC4FE49121E030E001C0220FEA9533
:10273000EAF72095422F482320E062E0CE01DF91A6
:10274000CF911F910C940E11CF93DF93EC010E9457
:1027500084124C8941604C8B20E060E0CE010E94E5
:102760000E1120E040E767E0CE010E940E1161E00B
:10277000CE010E9460108E85882351F0AE01425F29
:102780005F4F2B896AE0CE01DF91CF910C94E61068
:1027900060E0CE01DF91CF910C948613CF93DF934D
:1027A000EC010E946C1080E50E946B0A8A8783E727
:1027B0000E946B0ACE01DF91CF910C94A9100F9368
:1027C0001F93CF93DF938C01D62FC42F66E00E9416
:1027D000CF10887FD43060F0CA5F4C2F482B20E0A8
:1027E00066E0C801DF91CF911F910F910C940E11FB
:1027F000DD0FCD0FF2CFEF92FF920F931F93CF9388
:102800008C017B0166E00E94CF10C82FC77D82E05B
:10281000E816F104F1F4C0628BE990E0A0E0B0E0CA
:10282000F801878B908FA18FB28F20E04C2F66E04C
:10283000C8010E940E1166E0C8010E94CF1091E00D
:102840008C1390E0892FCF911F910F91FF90EF9003
:10285000089585E590E0A0E0B0E0EA94EF2801F764
:10286000C86081E490E0A0E0B0E0DACF603108F029
:102870006FE020E1629FB0011124403108F04FE089
:10288000462B20E064E00C940E111F93CF93DF934E
:10289000EC0165E070E080E090E00E9461194FE09B
:1028A00065E0CE010E94361470E060E0CE010E9427
:1028B000FB136DE1CE010E94CF10182FCE010E94B4
:1028C000CE136DE1CE010E94CF1091E0181390E07D
:1028D0009D8B882359F0181303C0CE010E94CE139C
:1028E00020E040E06DE1CE010E940E111D8620E047
:1028F00040E06CE1CE010E940E111C8620E04FE307
:1029000061E0CE010E940E1120E043E062E0CE01C2
:102910000E940E1160E2CE010E94071265E0CE0116
:102920000E9422136CE4CE010E94FF1120E040E7D8
:1029300067E0CE010E940E11CE010E94AA11CE01C5
:102940000E94B41120E04CE060E0CE010E940E1124
:1029500060E0CE010E94CF108C8BCE010E948412C9
:1029600081E09C899E3009F080E0DF91CF911F913A
:102970000895CF93DF93EC010E941A0FCE010E94BD
:102980003312882329F0CE01DF91CF910C944514A6
:1029900080E0DF91CF910895CF93DF931F92CDB761
:1029A000DEB7FC01698387898823F9F0268984854D
:1029B00095852817190654F081E090E0938382836F
:1029C00090E080E00F90DF91CF9108958981A589F3
:1029D00023893489A20FB32FB11D8C9385898F5F12
:1029E000858B868B81E090E0EDCF00A4F1A5E02DF2
:1029F00061E0CE0101960995F5CFFC0181899089AE
:102A0000891B990B0895FC01908981892FEF3FEF75
:102A1000981740F4A685B785A90FB11D2C9130E019
:102A20009F5F908BC9010895DC015096EC915097FF
:102A300051968C915197E81748F41E968D919C9170
:102A4000E80FF92FF11D808190E008958FEF9FEF3F
:102A500008950895CF92DF92EF92FF920F931F9304
:102A6000CF93DF938C01CB017A01D80157962C913B
:102A70005797222389F0EB016B01C40ED51ECC15AC
:102A8000DD0579F06991D801ED91FC910190F0811B
:102A9000E02DC8010995F3CF9896ED91FC91642F34
:102AA0000995C701DF91CF911F910F91FF90EF9092
:102AB000DF90CF9008952F923F924F925F926F9246
:102AC0007F928F929F92AF92BF92CF92DF92EF92BE
:102AD000FF920F931F93CF93DF93CDB7DEB760972D
:102AE0000FB6F894DEBF0FBECDBF3C012B015A8359
:102AF00049833C832B838DA19EA19E838D83EFA16F
:102B0000F8A5F887EF8389A59AA59A878987EBA509
:102B1000FCA5FC87EB872DA43EA48FA598A99E87D2
:102B20008D87E9A9FAA9F88BEF87F3011382128246
:102B300088EE93E0A0E0B0E084839583A683B7831A
:102B400081E792E09183808375876487CB010E943F
:102B5000EF1AF30197878687108A118A128AC201B9
:102B60000E94EF1AF301948B838B158A168A178AB9
:102B700089819A81958F848F8B819C81978F868F95
:102B800011A300A3F3A2E2A2D5A2C4A2B7A2A6A257
:102B900091A680A68D819E8193A782A78F8198851B
:102BA00095A784A789859A8597A786A7C101EB85F4
:102BB000FC8509958F859889ED85FE8560960FB611
:102BC000F894DEBF0FBECDBFDF91CF911F910F9163
:102BD000FF90EF90DF90CF90BF90AF909F908F903D
:102BE0007F906F905F904F903F902F900994CF937C
:102BF000DF93EC0181E792E0998388838E859F853E
:102C00000E94F11A8B899C89DF91CF910C94F11A63
:102C1000FC01CA01228D338D232BD9F03089218903
:102C20003217B8F020E0422F50E0481759075CF403
:102C3000DB01A40FB51F3C91A685B785A40FB51F76
:102C40003C932F5FF0CF108A818B028CF38DE02DA7
:102C500009940895AB01BC0185E593E00C94081636
:102C6000DC015896ED91FC915997309731F05596CB
:102C70001C92559756961C920994089585E593E009
:102C80000C9430168F929F92AF92BF92CF92DF92A8
:102C9000EF92FF920F931F938EE396E19F938F9392
:102CA00088EA97E19F938F938AE296E19F938F93AF
:102CB00083EA97E19F938F938FEB97E19F938F9395
:102CC00085EB97E19F938F938DEA97E19F938F9385
:102CD0008CE7882E87E1982E95E2A92E97E1B92EF0
:102CE0002DEDC22E26E1D22E3AECE32E36E1F32E64
:102CF00006EC16E129EB36E14BE956E160E270E0C3
:102D000085E593E00E945B158DB79EB70E960FB6D2
:102D1000F8949EBF0FBE8DBF1F910F91FF90EF9053
:102D2000DF90CF90BF90AF909F908F90089585E5F2
:102D300093E00C94F7151092F20381E08093F00376
:102D40001092EF0361E082E10E94881A61E083E162
:102D50000E94881AE9EBF0E080818E7F8083808179
:102D60008D7F808388E48093B80085E48093BC00E5
:102D70000895ECEBF0E080818A7B808360E082E163
:102D80000E94881A60E083E10C94881A880F80936F
:102D9000BA0008959B01AC0160E074E284EF90E01A
:102DA0000E94361D20513109410951095695479518
:102DB000379527952093B8000895413208F043C015
:102DC0009091F2039111FCCF91E09093F203209344
:102DD000F0032FEF209385031092CA03240F209352
:102DE000C9039093F1039091F103880F892B80938D
:102DF000F1038091EF03813009F51092EF03809188
:102E0000F1038093BB008091BC0083FDF8CF85EC7B
:102E10008093BC008091F2038130E1F38091CA037A
:102E2000841710F44091CA03ABECB3E0962FFB017A
:102E30008E2F891B841720F0842F089585EEE8CF0C
:102E40008D918193F5CF40E0F7CF0F93413208F099
:102E50004BC09091F2039111FCCF92E09093F2035A
:102E60000093F0039FEF909385031092CA03409361
:102E7000C903362FABECB3E0FB019E2F931B9417D5
:102E800070F11092F1039091F103880F892B8093D8
:102E9000F1038091EF03813029F51092EF038091C7
:102EA000F1038093BB008091BC0083FDF8CF85ECDB
:102EB0008093BC00222321F08091F2038230D1F371
:102EC000809185038F3F91F080918503803281F05E
:102ED00080918503803371F084E00F910895919182
:102EE0009D93CBCF85EEE4CF81E0F7CF80E0F5CFA7
:102EF00082E0F3CF83E0F1CF2091A703260F3327A1
:102F0000331F21323105ECF42091F203FC0190E0F3
:102F100080E0243069F082E00895A091A703219118
:102F2000AC0147555C4FA40FB52FB11D2C930196F2
:102F3000861798F38091A703680F6093A70380E03A
:102F4000089581E008959093EC038093EB03089536
:102F50009093EE038093ED030895882321F085EC90
:102F60008093BC00089585E8FBCF85ED8093BC007D
:102F70008091BC0084FDFCCF1092F203089585EC93
:102F80008093BC001092F20308951F920F920FB627
:102F90000F9211242F933F934F935F936F937F93DF
:102FA0008F939F93AF93BF93EF93FF938091B9005B
:102FB000887F803609F44CC008F03FC0883209F49D
:102FC000A8C018F5803109F49CC0B8F4882309F42E
:102FD000F9C0883009F495C0FF91EF91BF91AF918E
:102FE0009F918F917F916F915F914F913F912F9121
:102FF0000F900FBE0F901F901895883109F489C06B
:10300000803251F78093850315C0803409F49EC047
:1030100048F48033B9F38833F9F6809385030E942E
:10302000BF17DACF803509F485C0883509F496C01A
:10303000883491F60E94B517CFCF883909F48CC037
:1030400038F5883729F050F4883611F0803721F6AA
:1030500083E08093F2031092860357C0883809F406
:103060007BC0803919F0803809F0B6CF8091860393
:10307000803208F071C0E091860381E08E0F80936A
:1030800086038091BB00F0E0E957FC4F80833DC090
:10309000803B39F0E0F4803A09F479C0883A09F0CD
:1030A0009BCF84E08093F2031092A8031092A703B1
:1030B000E091ED03F091EE0309958091A703811152
:1030C0000FC081E08093A7031092A90309C0803C40
:1030D00009F476C0883C09F473C0883B09F07CCFC2
:1030E000E091A80381E08E0F8093A803F0E0E755FC
:1030F000FC4F80818093BB009091A8038091A7032F
:1031000029C08091F1038093BB0085EC8093BC00C3
:1031100063CF9091CA038091C903981758F5E09145
:10312000CA0381E08E0F8093CA03F0E0E553FC4FA1
:103130008081E9CFE091CA0381E08E0F8093CA03BA
:103140008091BB00F0E0E553FC4F80839091CA036F
:103150008091C9039817C8F285E8D8CFE091CA03D7
:1031600081E08E0F8093CA038091BB00F0E0E553AD
:10317000FC4F80838091F00381115CCF81E08093CC
:10318000EF0384EA8093BC001092F20325CF0E94E3
:10319000BF1780918603803230F4E0918603F0E01F
:1031A000E957FC4F10826091860370E0E091EB03D9
:1031B000F091EC0387E893E00995109286030CCF19
:1031C00085ECE0CF1092850335CF08951F920F92C2
:1031D0000FB60F9211242F933F938F939F93AF932A
:1031E000BF938091F8039091F903A091FA03B091F5
:1031F000FB033091F70323E0230F2D3768F126E816
:10320000230F0296A11DB11D2093F7038093F803AD
:103210009093F903A093FA03B093FB038091F30317
:103220009091F403A091F503B091F6030196A11DCE
:10323000B11D8093F3039093F403A093F503B0932F
:10324000F603BF91AF919F918F913F912F910F9076
:103250000FBE0F901F9018950196A11DB11DD4CFE0
:103260002FB7F8946091F8037091F9038091FA03F5
:103270009091FB032FBF08953FB7F8948091F3031B
:103280009091F403A091F503B091F60326B5A89BA5
:1032900005C02F3F19F00196A11DB11D3FBFBA2FE8
:1032A000A92F982F8827BC01CD01620F711D811DA8
:1032B000911D42E0660F771F881F991F4A95D1F72D
:1032C00008958F929F92AF92BF92CF92DF92EF922A
:1032D000FF926B017C010E943C194B015C01C114FF
:1032E000D104E104F104E9F00E94E5180E943C19C0
:1032F000681979098A099B09683E7340810591051F
:1033000070F321E0C21AD108E108F10888EE880EB6
:1033100083E0981EA11CB11CC114D104E104F10486
:1033200029F7FF90EF90DF90CF90BF90AF909F90E4
:103330008F9008958230910538F0880F991F880F7B
:10334000991F05970197F1F70895789484B58360E4
:1033500084BD85B5836085BDEEE6F0E08081816047
:103360008083E1E8F0E082E0808380818160808377
:10337000E0E8F0E0808181608083E1EBF0E0808133
:1033800084608083E0EBF0E0808181608083E1E90C
:10339000F0E0808183608083E0E9F0E080818160FB
:1033A0008083E1EAF0E0808183608083E0EAF0E0FE
:1033B00080818160808387E880937A001092C100C9
:1033C0000895883038F092EF980F9B30D8F089310B
:1033D000D8F083512091430190E4299F900111245A
:1033E0008770822B80937C0080917A008064809328
:1033F0007A0080917A0086FDFCCF809178009091D0
:1034000079000895892FE6CF8FEFE4CF82508D3079
:1034100008F03EC0E82FF0E0E05FF54E0C94581D38
:10342000451A491A1D1A231A481A481A271A2D1A1A
:10343000311A371A481A3B1A411A809180008F7747
:10344000809380000895809180008F7DF9CF8091D6
:10345000B0008F778093B00008958091B0008F7D89
:10346000F9CF809190008F7780939000089580919C
:1034700090008F7DF9CF8091A0008F778093A0007E
:1034800008958091A0008F7DF9CF84B58F7784BD9A
:10349000089584B58F7DFBCFCF93DF9390E0FC013F
:1034A000E25FFB4F2491875D9B4FFC018491882351
:1034B000C9F090E0880F991FFC01E45AFB4FA591D9
:1034C000B491FC01E05BFB4FC591D49161110DC03B
:1034D0009FB7F8948C91209582238C938881282320
:1034E00028839FBFDF91CF910895623051F49FB739
:1034F000F8943C91822F809583238C93E8812E2B26
:10350000EFCF8FB7F894EC912E2B2C938FBFEACF8F
:103510001F93CF93DF93282F30E0F901ED50FC4F3C
:103520008491F901E25FFB4FD491F901E75DFB4F14
:10353000C491CC23A9F0162F81110E94061AEC2FFA
:10354000F0E0EE0FFF1FE05BFB4FA591B4918FB74A
:10355000F894EC91111108C0D095DE23DC938FBF55
:10356000DF91CF911F910895DE2BF8CFCF93DF939A
:10357000282F30E0F901ED50FC4F8491F901E25F12
:10358000FB4FD491F901E75DFB4FC491CC23A1F02F
:1035900081110E94061AEC2FF0E0EE0FFF1FEC5B8A
:1035A000FB4FA591B491EC91ED2381E090E009F4FB
:1035B00080E0DF91CF91089580E090E0FACF089508
:1035C0000E94A5190E94DF1A0E944604C0E0D0E0C4
:1035D0000E94E3082097E1F30E940000F9CF0C94C9
:1035E0005E1D0C94FA1D5058BB27AA270E940B1B86
:1035F0000C947E1C0E94701C38F00E94771C20F0F6
:1036000039F49F3F19F426F40C946D1C0EF4E095E8
:10361000E7FB0C94671CE92F0E948F1C58F3BA1724
:10362000620773078407950720F079F4A6F50C94D8
:10363000B11C0EF4E0950B2EBA2FA02D0B01B90191
:1036400090010C01CA01A0011124FF27591B99F018
:10365000593F50F4503E68F11A16F040A22F232F24
:10366000342F4427585FF3CF469537952795A79574
:10367000F0405395C9F77EF41F16BA0B620B730B1B
:10368000840BBAF09150A1F0FF0FBB1F661F771F8C
:10369000881FC2F70EC0BA0F621F731F841F48F441
:1036A000879577956795B795F7959E3F08F0B0CFCA
:1036B0009395880F08F09927EE0F979587950895B1
:1036C0000E94431C08F481E008950E94791B0C9429
:1036D0007E1C0E94771C58F00E94701C40F029F458
:1036E0005F3F29F00C94671C51110C94B21C0C9490
:1036F0006D1C0E948F1C68F39923B1F3552391F33D
:10370000951B550BBB27AA2762177307840738F050
:103710009F5F5F4F220F331F441FAA1FA9F335D0AD
:103720000E2E3AF0E0E832D091505040E695001C61
:10373000CAF72BD0FE2F29D0660F771F881FBB1F1B
:10374000261737074807AB07B0E809F0BB0B802DF9
:10375000BF01FF2793585F4F3AF09E3F510578F025
:103760000C94671C0C94B21C5F3FE4F3983ED4F3B6
:10377000869577956795B795F7959F5FC9F7880FF9
:10378000911D9695879597F90895E1E0660F771F4B
:10379000881FBB1F621773078407BA0720F0621BDC
:1037A000730B840BBA0BEE1F88F7E09508950E9407
:1037B000971C88F09F5798F0B92F9927B751B0F010
:1037C000E1F0660F771F881F991F1AF0BA95C9F7A5
:1037D00014C0B13091F00E94B11CB1E008950C9476
:1037E000B11C672F782F8827B85F39F0B93FCCF329
:1037F000869577956795B395D9F73EF49095809522
:10380000709561957F4F8F4F9F4F0895E89409C041
:1038100097FB3EF490958095709561957F4F8F4F03
:103820009F4F9923A9F0F92F96E9BB279395F69519
:10383000879577956795B795F111F8CFFAF4BB0F97
:1038400011F460FF1BC06F5F7F4F8F4F9F4F16C0FB
:10385000882311F096E911C0772321F09EE8872F85
:10386000762F05C0662371F096E8862F70E060E041
:103870002AF09A95660F771F881FDAF7880F9695BA
:10388000879597F90895990F0008550FAA0BE0E85E
:10389000FEEF16161706E807F907C0F01216130612
:1038A000E407F50798F0621B730B840B950B39F452
:1038B0000A2661F0232B242B252B21F408950A26B8
:1038C00009F4A140A6958FEF811D811D089597F9F8
:1038D0009F6780E870E060E008959FEF80EC0895B6
:1038E00000240A94161617061806090608950024DF
:1038F0000A9412161306140605060895092E039459
:10390000000C11F4882352F0BB0F40F4BF2B11F4CC
:1039100060FF04C06F5F7F4F8F4F9F4F089557FD2B
:103920009058440F551F59F05F3F71F04795880F2D
:1039300097FB991F61F09F3F79F0879508951216C4
:1039400013061406551FF2CF4695F1DF08C0161670
:1039500017061806991FF1CF869571056105089421
:103960000895E894BB2766277727CB0197F9089538
:103970000E94431C08F48FEF08950E94D01C0C9401
:103980007E1C0E94701C38F00E94771C20F095234A
:1039900011F00C94671C0C946D1C11240C94B21C37
:1039A0000E948F1C70F3959FC1F3950F50E0551F37
:1039B000629FF001729FBB27F00DB11D639FAA2784
:1039C000F00DB11DAA1F649F6627B00DA11D661FD3
:1039D000829F2227B00DA11D621F739FB00DA11DF4
:1039E000621F839FA00D611D221F749F3327A00DAE
:1039F000611D231F849F600D211D822F762F6A2F4A
:103A000011249F5750409AF0F1F088234AF0EE0FAE
:103A1000FF1FBB1F661F771F881F91505040A9F7DB
:103A20009E3F510580F00C94671C0C94B21C5F3FC4
:103A3000E4F3983ED4F3869577956795B795F79517
:103A4000E7959F5FC1F7FE2B880F911D969587958F
:103A500097F90895991B79E004C0991F961708F00B
:103A6000961B881F7A95C9F780950895A1E21A2EB2
:103A7000AA1BBB1BFD010DC0AA1FBB1FEE1FFF1F12
:103A8000A217B307E407F50720F0A21BB30BE40B62
:103A9000F50B661F771F881F991F1A9469F76095A9
:103AA0007095809590959B01AC01BD01CF01089563
:103AB000EE0FFF1F0590F491E02D09940F931F93D3
:103AC000CF93DF938230910510F482E090E0E09193
:103AD000FE03F091FF0330E020E0B0E0A0E030977B
:103AE00099F42115310509F44AC0281B390B2430FB
:103AF0003105D8F58A819B816115710589F1FB013A
:103B000093838283FE0111C0408151810281138120
:103B100048175907E0F04817590799F4109761F0D2
:103B200012960C93129713961C933296CF01DF9145
:103B3000CF911F910F9108950093FE031093FF03FF
:103B4000F4CF2115310551F04217530738F0A90180
:103B5000DB019A01BD01DF01F801C1CFEF01F9CF0F
:103B60009093FF038093FE03CDCFFE01E20FF31F7E
:103B7000819391932250310939832883D7CF2091A3
:103B8000FC033091FD03232B41F42091020130917D
:103B900003013093FD032093FC0320910001309139
:103BA00001012115310541F42DB73EB740910401C3
:103BB00050910501241B350BE091FC03F091FD03AE
:103BC000E217F307A0F42E1B3F0B2817390778F0F4
:103BD000AC014E5F5F4F2417350748F04E0F5F1F53
:103BE0005093FD034093FC03819391939FCFF0E0AA
:103BF000E0E09CCFCF93DF930097E9F0FC01329790
:103C000013821282A091FE03B091FF03ED0130E018
:103C100020E01097A1F420813181820F931F209121
:103C2000FC033091FD032817390709F061C0F093B8
:103C3000FD03E093FC03DF91CF910895EA01CE17D5
:103C4000DF07E8F54A815B819E0141155105B1F717
:103C5000E901FB83EA8349915991C40FD51FEC1701
:103C6000FD0761F4808191810296840F951FE9011F
:103C700099838883828193819B838A83F0E0E0E04B
:103C800012968D919C9113970097B9F52D913C91C7
:103C90001197CD010296820F931F2091FC03309162
:103CA000FD032817390739F6309751F51092FF03B5
:103CB0001092FE03B093FD03A093FC03BCCFD3830B
:103CC000C28340815181840F951FC817D90761F4C1
:103CD0004E5F5F4F88819981480F591F5183408300
:103CE0008A819B81938382832115310509F0B0CFAE
:103CF000F093FF03E093FE039ECFFD01DC01C0CFF4
:103D000013821282D7CFFC0188279927E89421914A
:103D10002032E9F3293010F02E30C8F32B3241F075
:103D20002D3239F4689404C00E940A1F820F911D3D
:103D3000219120532A30C0F31EF4909581959F4F16
:103D400008951F93FC0199278827BC01E8941191DD
:103D50001032E9F3193010F01E30C8F31B3251F065
:103D60001D3249F4689406C00E94F51E610F711D52
:103D7000811D911D119110531A30B0F33EF49095AE
:103D80008095709561957F4F8F4F9F4F1F9108953C
:103D9000DC01FB014150504058F049F005900D9274
:103DA0000020C1F7E61BF70B3197CF0108951C9255
:103DB00005900020E9F7F6CFFB01DC0102C001907D
:103DC0000D9241505040D8F70895FB01DC018D91D0
:103DD000019080190110D9F3990B0895FB01DC01C2
:103DE00001900D920020E1F70895592F482F372FA9
:103DF000262F660F771F881F991F660F771F881F52
:103E0000991F620F731F841F951F660F771F881FEE
:103E1000991F08957AE0979F902D879F802D910D8F
:103E200011240895AEE0B0E0E8E1FFE10C94C12177
:103E30000D891E8986E08C831A8309838FEF9FE7A3
:103E40009E838D83AE01475E5F4F6F89788DCE0173
:103E500001960E94351F2F813885020F131FF8012C
:103E600010822E96E4E00C94DD21ABE0B0E0EBE3B1
:103E7000FFE10C94B3217C013B018A01FC01178214
:103E80001682838181FFC8C1CE0101965C01F701D2
:103E90009381F30193FD859193FF81913F018823E5
:103EA00009F453C1853239F493FD859193FF8191D3
:103EB0003F01853229F4B70190E00E942521E7CF28
:103EC000912C212C312CFFE1F31538F08B3211F1BC
:103ED00090F4803209F1833229F137FC3CC020EDA7
:103EE000280F2A3050F536FE20C08AE0989E200D1B
:103EF0001124922E06C08D3291F0803371F76894B0
:103F000030F8F30193FD859193FF81913F01811179
:103F1000DACF21C0689431F8689432F8F2CF68940F
:103F200033F8EFCF689434F8ECCFEAE02E9E200D02
:103F30001124222E689435F8E4CF8E3229F436FC11
:103F400004C1689436F8DDCF8C3619F4689437F8DC
:103F5000D8CF8836B1F2982F9F7D95549330E0F0FA
:103F60008336A1F18337C1F1833509F063C028019D
:103F7000F2E04F0E511CF801C080D180692D70E035
:103F800036FC02C06FEF7FEFC6010E940F214C018B
:103F9000689437F882010AC00C5F1F4FFFE3F98372
:103FA00088248394912C6501E89437F833FE2DC062
:103FB000522C8114910471F5552009F468CFB70192
:103FC00080E290E00E9425215A94F6CFF80180818A
:103FD00089830E5F1F4FE4CF2801F2E04F0E511C82
:103FE000F801C080D180692D70E036FC02C06FEF0F
:103FF0007FEFC6010E941A214C018201D5CFB70183
:1040000080E290E00E9425212A942814190409F0E6
:10401000B0F7CECFF60137FC859137FE81916F0165
:10402000B70190E00E94252151105A94F1E08F1AB7
:104030009108BFCF843619F0893609F077C0F801AE
:1040400037FE6BC060817181828193810C5F1F4F4D
:10405000F32DFF763F2E97FF09C0909580957095C0
:1040600061957F4F8F4F9F4F689437F82AE030E07B
:10407000A5010E945521C82ECA188C2C432C36FE4F
:104080000CC0E89440F8C91440F434FE05C032FC7A
:1040900003C0F32DFE7E4F2E892C44FE95C0FE01F9
:1040A000EC0DF11D8081803309F087C0242D297E1D
:1040B000422E842D8870582E43FC95C040FE8FC040
:1040C0009C2C821418F42C0C922C981844FE91C04D
:1040D000B70180E390E00E94252142FE09C088E7F5
:1040E00090E041FE02C088E590E0B7010E942521E2
:1040F000C91408F48AC0CA94D12C9FEFC91AD90AEE
:10410000CA0CDB1CF60182916F01B70190E00E949E
:104110002521AC14BD04B1F74FCF60817181072E0A
:10412000000C880B990B0E5F1F4F92CFD32CE89495
:10413000D4F82AE030E0853739F1232D297FD22EBB
:104140008F3601F148F48835A9F0F701868197810F
:104150002B96E2E10C94CF21803749F08837A9F7FC
:10416000D4FE02C06894D2F820E130E00DC068941B
:10417000D4F8F6CF34FE03C0822F8660D82E20E11B
:1041800032E002C028E030E0F801D7FE0FC06081C5
:104190007181828193810C5F1F4FA5010E9455217F
:1041A000C82ECA183D2CE89437F867CF608171811A
:1041B00090E080E00E5F1F4FF0CF42FC02C083947E
:1041C00078CF8394839475CF842D867809F471CF4A
:1041D000F6CFB70180E290E00E94252183948214FB
:1041E000C0F3512C73CF522C5818821408F46ECFA0
:1041F000F8CF842D867809F47BCF8BE241FE80E2F4
:1042000047FC8DE2B70190E071CFB70180E390E009
:104210000E9425219A946CCF8FEF9FEF99CFFC01DC
:104220000590615070400110D8F7809590958E0FE1
:104230009F1F0895FC016150704001900110D8F754
:10424000809590958E0F9F1F08950F931F93CF9386
:10425000DF93182F092FEB018B8181FD09C01FEF20
:104260000FEF812F902FDF91CF911F910F91089524
:1042700082FF14C02E813F818C819D8128173907D0
:104280003CF4E881F981CF010196998388831083FA
:104290008E819F8101969F838E83E3CFE885F98588
:1042A000812F0995892BA1F3DACFFA01AA272830AB
:1042B00051F1203181F1E8946F936E7F6E5F7F4FF3
:1042C0008F4F9F4FAF4FB1E03ED0B4E03CD0670F6F
:1042D000781F891F9A1FA11D680F791F8A1F911DC2
:1042E000A11D6A0F711D811D911DA11D20D009F412
:1042F00068943F912AE0269F11243019305D319354
:10430000DEF6CF010895462F4770405D4193B3E03C
:104310000FD0C9F7F6CF462F4F70405D4A3318F0E3
:10432000495D31FD4052419302D0A9F7EACFB4E094
:10433000A6959795879577956795BA95C9F700974C
:104340006105710508959B01AC010A2E06945795ED
:10435000479537952795BA95C9F7620F731F841F44
:10436000951FA01D08952F923F924F925F926F92DA
:104370007F928F929F92AF92BF92CF92DF92EF92F5
:10438000FF920F931F93CF93DF93CDB7DEB7CA1B76
:10439000DB0B0FB6F894DEBF0FBECDBF09942A88A1
:1043A000398848885F846E847D848C849B84AA8449
:1043B000B984C884DF80EE80FD800C811B81AA81D6
:1043C000B981CE0FD11D0FB6F894DEBF0FBECDBFA1
:1043D000ED01089512E0C6E3D2E004C0FE010E94A0
:0E43E000581D2196C733D107C9F7F894FFCFB7
:1043EE000000000480007E766E42766E7E18CC0150
:1043FE00D101D401DA01E101E801EF01F301F80185
:10440E0001020D02F301314E6F646500324E6F648E
:10441E006500000000002003000004000190010070
:10442E00005A0001256C6400256425630044617008
:10443E00656E6720536C696465722E005665722036
:10444E00302E312E300026333031230026323035D7
:10445E002C256C642300263230362C256423003242
:10446E003031002625732C256C6423003230320047
:10447E00323033002625732C25642300323034006D
:10448E0063757272656E74003130310031303200F6
:10449E0031303300313034003130350031303600B8
:1044AE0000000000020A65026102640246726F6D2E
:1044BE0000546F00537065656400526570656174D9
:1044CE0000466F6375734400466F63757341005207
:1044DE00756E004261636B004E6577207461737474
:1044EE00005361766564207461736B730053657459
:1044FE0074696E670004080C1815E215AE154015A8
:10450E00A115C015A615A2152F15F8160015231501
:10451E008116B415AE15A519FF00019632010132B0
:10452E007800093D00000428501008040080004067
:10453E00001815A015C819FF1815A115C019FF18D8
:10454E0015AE15A519FF1815A415AF19FF0000001B
:10455E0000CC142A1561022915FD1403151415003B
:00000001FF
